:100000000C94A7000C94C4000C94C4000C94C4007D
:100010000C94C4000C94C4000C94C4000C942006EE
:100020000C94C4000C9453060C94C4000C94C400AB
:100030000C94C4000C94C4000C94C4000C94C40030
:100040000C94C4000C94C4000C94C4000C94C40020
:100050000C94C40000407A10F35A00A0724E1809A4
:100060000010A5D4E80000E87648170000E40B541F
:10007000020000CA9A3B000000E1F50500008096EE
:100080009800000040420F000000A0860100000020
:10009000102700000000E8030000000064000000DA
:1000A00000000A00000000000100000000002C76A3
:1000B000D888DC674F0823DFC1DFAE59E1B1B796BE
:1000C000E5E3E453C63AE651997696E8E6C284261B
:1000D000EB898C9B62ED407C6FFCEFBC9C9F40F2F7
:1000E000BAA56FA5F490055A2AF75C936B6CF96773
:1000F0006DC11BFCE0E40D47FEF520E6B500D0ED38
:10010000902E0300943577050080841E080000209F
:100110004E0A000000C80C333333330F986E12833D
:100120001141EF8D2114893BE65516CFFEE6DB1811
:10013000D1844B381BF77C1D901DA4BBE4242032D6
:1001400084725E228100C9F124ECA1E53D271124CF
:100150001FBECFE5D8E0DEBFCDBF11E0A0E6B0E026
:10016000E2E2FFE302C005900D92A231B107D9F798
:1001700011E0A2E1B1E001C01D92A631B107E1F7A3
:100180000E9420120C948F1F0C940000EF92FF929B
:100190000F931F937B018C0120E030E040E05FE48F
:1001A0000E94C60388238CF0C801B70120E030E02C
:1001B00040E05FE40E943E020E9426049B01AC01E5
:1001C000205030404040504806C0C801B7010E944E
:1001D00026049B01AC01B901CA011F910F91FF9048
:1001E000EF900895A0E0B0E0E8EFF0E00C94B81CC8
:1001F000DC012B01FA019C91923008F439C1EB012A
:100200008881823008F433C1943069F4843009F075
:100210002FC111969C9111978981981709F428C1D3
:10022000AEEFB0E025C1843009F421C18230A9F4D9
:10023000923009F01DC19A01AD0188E0EA010990F0
:10024000AE01E90109929E018150C1F7E201898165
:1002500011969C918923818308C1923009F407C1CA
:1002600012962D903C901397EB018A819B811496F6
:10027000AD90BD90CD90DC901797EC80FD800E8105
:100280001F819101281B390BB90137FF04C0662774
:100290007727621B730B603271050CF061C0121678
:1002A00013066CF537014801062E04C09694879416
:1002B000779467940A94D2F721E030E040E050E070
:1002C00004C0220F331F441F551F6A95D2F72150D7
:1002D0003040404050402E213F21402351232115E2
:1002E00031054105510521F021E030E040E050E0CA
:1002F00079018A01E628F728082919293CC0232B0F
:10030000D1F1260E371E35014601062E04C0969403
:100310008794779467940A94D2F721E030E040E024
:1003200050E004C0220F331F441F551F6A95D2F7B7
:1003300021503040404050402A213B214C215D213A
:10034000211531054105510521F021E030E040E063
:1003500050E059016A01A628B728C828D9280BC03F
:10036000821593052CF01C01AA24BB24650103C04F
:10037000EE24FF24870111969C91D20111968C9155
:10038000981709F445C0992339F0A80197012A1953
:100390003B094C095D0906C0A60195012E193F09CC
:1003A000400B510B57FD08C01182338222822483F7
:1003B0003583468357831DC081E081833382228247
:1003C00088279927DC01821B930BA40BB50B848330
:1003D0009583A683B7830DC0220F331F441F551F7B
:1003E0002483358346835783828193810197938346
:1003F00082832481358146815781DA01C9010197C1
:10040000A109B1098F5F9F4FAF4FBF4328F30BC0C6
:10041000918333822282EA0CFB1C0C1D1D1DE48299
:10042000F5820683178383E08083248135814681AA
:10043000578157FF1AC0C901AA2797FDA095BA2F67
:1004400081709070A070B07056954795379527953C
:10045000822B932BA42BB52B84839583A683B78300
:1004600082819381019693838283DF0101C0D2014F
:10047000CD01CDB7DEB7E2E10C94D41CA0E2B0E030
:10048000E4E4F2E00C94C41C69837A838B839C833C
:100490002D833E834F835887E9E0EE2EF12CEC0E3E
:1004A000FD1ECE010196B7010E944F058E010F5E21
:1004B0001F4FCE010596B8010E944F058A8991E031
:1004C00089278A8BC701B801AE01475E5F4F0E9442
:1004D000F2000E947A04A096E6E00C94E01CA0E2F0
:1004E000B0E0E5E7F2E00C94C41C69837A838B8367
:1004F0009C832D833E834F835887F9E0EF2EF12CA8
:10050000EC0EFD1ECE010196B7010E944F058E0133
:100510000F5E1F4FCE010596B8010E944F05C7011F
:10052000B801AE01475E5F4F0E94F2000E947A045C
:10053000A096E6E00C94E01CA0E2B0E0E2EAF2E073
:100540000C94B81C69837A838B839C832D833E83B0
:100550004F835887CE010196BE01675F7F4F0E948F
:100560004F05CE010596BE016F5E7F4F0E944F057D
:100570009985923088F089898230C8F0943019F4D6
:10058000823051F404C0843029F4923081F48EEF2B
:1005900090E0C6C0923049F420E09A858A89981389
:1005A00021E02A87CE010996BBC0823049F420E0C1
:1005B0009A858A89981321E02A8BCE014196B0C092
:1005C0002D843E844F8458886D887E888F88988CCF
:1005D000EE24FF248701AA24BB24650140E050E0FB
:1005E00060E070E0E0E0F0E0C10181709070892B84
:1005F000E9F0E60CF71C081D191D9A01AB012A0D44
:100600003B1D4C1D5D1D80E090E0A0E0B0E0E614D5
:10061000F7040805190520F481E090E0A0E0B0E0BF
:10062000BA01A901480F591F6A1F7B1FAA0CBB1CE6
:10063000CC1CDD1C97FE08C081E090E0A0E0B0E09B
:10064000A82AB92ACA2ADB2A3196E032F10549F0F4
:10065000660C771C881C991C5694479437942794F1
:10066000C3CFFA85EA892B893C898B859C85280F25
:10067000391F2E5F3F4F17C0CA0181709070892BC0
:1006800061F016950795F794E79480E090E0A0E07C
:10069000B0E8E82AF92A0A2B1B2B7695679557951F
:1006A00047952F5F3F4F77FDE7CF0CC0440F551F95
:1006B000661F771F17FD4160EE0CFF1C001F111F06
:1006C00021503040403090E0590790E0690790E4B5
:1006D000790760F32B8F3C8FDB01CA018F77907015
:1006E000A070B07080349105A105B10561F447FD9B
:1006F0000AC0E114F1040105110529F0405C5F4FC7
:100700006F4F7F4F40781A8EFE1711F081E08A8F6D
:100710004D8F5E8F6F8F78A383E0898FCE014996CE
:100720000E947A04A096E2E10C94D41CA8E1B0E007
:10073000ECE9F3E00C94C41C69837A838B839C837B
:100740002D833E834F83588789E0E82EF12CEC0EF1
:10075000FD1ECE010196B7010E944F058E010F5E6E
:100760001F4FCE010596B8010E944F058985823042
:1007700040F08989823028F0C701B8010E94C7057E
:1007800001C08FEF6896E6E00C94E01CA8E1B0E0B1
:10079000ECECF3E00C94C41C69837A838B839C8318
:1007A0002D833E834F83588789E0E82EF12CEC0E91
:1007B000FD1ECE010196B7010E944F058E010F5E0E
:1007C0001F4FCE010596B8010E944F0589858230E2
:1007D00040F08989823028F0C701B8010E94C7051E
:1007E00001C08FEF6896E6E00C94E01CA8E1B0E051
:1007F000ECEFF3E00C94C41C69837A838B839C83B5
:100800002D833E834F83588789E0E82EF12CEC0E30
:10081000FD1ECE010196B7010E944F058E010F5EAD
:100820001F4FCE010596B8010E944F058985823081
:1008300040F08989823028F0C701B8010E94C705BD
:1008400001C081E06896E6E00C94E01CACE0B0E00A
:10085000ECE2F4E00C94C81C69837A838B839C835C
:10086000CE010196BE016B5F7F4F0E944F058D81C7
:10087000823061F1823050F1843021F48E818823FE
:1008800051F12EC02F81388537FD20C06E812F3168
:1008900031051CF06623F9F023C08EE190E0821B45
:1008A000930B29853A854B855C8504C05695479501
:1008B000379527958A95D2F76623B1F050954095E4
:1008C000309521953F4F4F4F5F4F0EC020E030E0F5
:1008D00040E050E009C02FEF3FEF4FEF5FE704C06B
:1008E00020E030E040E050E8B901CA012C96E2E097
:1008F0000C94E41CDF92EF92FF920F931F93FC0184
:10090000E480F58006811781D1808081823048F4AF
:1009100080E090E0A0E1B0E0E82AF92A0A2B1B2B46
:10092000A5C0843009F49FC0823021F4EE24FF2456
:10093000870105C0E114F1040105110519F4E0E097
:10094000F0E096C0628173819FEF623879070CF006
:100950005BC022E83FEF261B370B2A3131052CF014
:1009600020E030E040E050E02AC0B801A701022EAC
:1009700004C076956795579547950A94D2F781E01C
:1009800090E0A0E0B0E004C0880F991FAA1FBB1F31
:100990002A95D2F70197A109B1098E219F21A023A1
:1009A000B1230097A105B10521F081E090E0A0E01E
:1009B000B0E09A01AB01282B392B4A2B5B2BDA01D3
:1009C000C9018F779070A070B07080349105A10537
:1009D000B10539F427FF09C0205C3F4F4F4F5F4FEF
:1009E00004C0215C3F4F4F4F5F4FE0E0F0E020300C
:1009F000A0E03A07A0E04A07A0E45A0710F0E1E0BF
:100A0000F0E079018A0127C06038710564F5FB01C7
:100A1000E158FF4FD801C7018F779070A070B07078
:100A200080349105A105B10539F4E7FE0DC080E4DD
:100A300090E0A0E0B0E004C08FE390E0A0E0B0E080
:100A4000E80EF91E0A1F1B1F17FF05C01695079514
:100A5000F794E794319687E016950795F794E79415
:100A60008A95D1F705C0EE24FF248701EFEFF0E06F
:100A70006E2F679566276795902F9F77D794DD2413
:100A8000D7948E2F8695492F462B582F5D29B70175
:100A9000CA011F910F91FF90EF90DF900895FC0124
:100AA000DB01408151812281622F6F7770E0221F2C
:100AB0002227221F9381892F880F822B282F30E035
:100AC000991F9927991F11969C931197211531050C
:100AD000A9F5411551056105710511F482E037C092
:100AE00082E89FEF13969C938E9312979A01AB0125
:100AF00067E0220F331F441F551F6A95D1F783E02B
:100B00008C930DC0220F331F441F551F12968D91D9
:100B10009C911397019713969C938E931297203074
:100B200080E0380780E0480780E4580758F31496BF
:100B30002D933D934D935C93179708952F3F310567
:100B400079F4411551056105710519F484E08C9320
:100B5000089564FF03C081E08C9312C01C9210C002
:100B60002F57304013963C932E93129783E08C932B
:100B700087E0440F551F661F771F8A95D1F7706471
:100B800014964D935D936D937C93179708951F93DF
:100B9000DC01FB019C91923008F447C080818230D7
:100BA00008F443C0943051F411961C91843099F5A7
:100BB0008181682F70E0611B71093FC0843021F092
:100BC000923031F48230B9F18181882389F12DC0CE
:100BD00011961C9111978230F1F081811817D9F488
:100BE00012962D913C9113978281938182179307DE
:100BF00094F028173907BCF014968D919D910D90B3
:100C0000BC91A02D24813581468157812817390751
:100C10004A075B0718F4112341F00AC082179307B3
:100C2000A407B50740F4112319F061E070E005C096
:100C30006FEF7FEF02C060E070E0CB011F9108957D
:100C40001F920F920FB60F9211242F933F934F9341
:100C50005F936F937F938F939F93AF93BF93EF9324
:100C6000FF93DF93CF93CDB7DEB7809112019091C0
:100C70001301009729F0E0911201F09113010995F9
:100C8000CF91DF91FF91EF91BF91AF919F918F91A4
:100C90007F916F915F914F913F912F910F900FBE78
:100CA0000F901F9018951F920F920FB60F9211245C
:100CB0002F933F934F935F936F937F938F939F9364
:100CC000AF93BF93EF93FF93DF93CF93CDB7DEB78F
:100CD0008091120190911301009739F0E091120177
:100CE000F0911301099510921401CF91DF91FF91BA
:100CF000EF91BF91AF919F918F917F916F915F9194
:100D00004F913F912F910F900FBE0F901F9018950C
:100D1000DF93CF9300D0CDB7DEB79A838983EFE41A
:100D2000F0E08CE08083AEE4B0E0EEE4F0E08081BF
:100D3000982F987FE981FA818281892B8C93ACE48A
:100D4000B0E0E981FA818081918111969C938E9324
:100D5000E981FA8183818130A9F4AAE4B0E0E981D4
:100D6000FA818481958111969C938E93E9E5F0E058
:100D700080E18083AEE4B0E0EEE4F0E08081886062
:100D80008C9309C0E981FA818381882321F4E9E504
:100D9000F0E084E080830F900F90CF91DF91089571
:100DA000DF93CF93CDB7DEB7EFE4F0E01082EEE44F
:100DB000F0E01082ECE4F0E011821082EAE4F0E06E
:100DC00011821082A9E5B0E0E9E5F0E08081837C42
:100DD0008C93109214011092130110921201CF9172
:100DE000DF910895DF93CF9300D0CDB7DEB79A831C
:100DF000898389819A8190931301809312010F90C6
:100E00000F90CF91DF910895DF93CF9300D000D062
:100E1000CDB7DEB79C838B831A821982EBE2F0E0B8
:100E200082E08083EAE2F0E088E18083A0E4B0E041
:100E3000EB81FC818081882F90E0880F991F282FFB
:100E40002068EB81FC818181882F90E082959295CA
:100E5000907F9827807F9827282BEB81FC818281C7
:100E6000882F90E0880F991F880F991F880F991F6E
:100E7000822B8C93EB81FC8183819481CC01A0E057
:100E8000B0E0880F991FAA1FBB1F880F991FAA1FC8
:100E9000BB1F880F991FAA1FBB1F9C01AD0180E0DB
:100EA00092E1AAE7B0E0BC01CD010E94961CDA01F4
:100EB000C90101979A838983E0E4F0E089819A81EE
:100EC000892F99278083E9E2F0E0898180830F9060
:100ED0000F900F900F90CF91DF910895DF93CF93F4
:100EE0000F92CDB7DEB78983EBE2F0E08081882FE7
:100EF00090E0807290700097B9F3ECE2F0E08981A5
:100F000080830F90CF91DF910895DF93CF93CDB77A
:100F1000DEB7EBE2F0E080818823DCF7ECE2F0E082
:100F20008081CF91DF910895DF93CF9300D00F920E
:100F3000CDB7DEB79B838A8319820EC08981282FA3
:100F400030E08A819B81FC01E20FF31F80810E94C7
:100F50006E0789818F5F89838981282F30E08A819C
:100F60009B81FC01E20FF31F8081882339F70F90EA
:100F70000F900F90CF91DF9108950F931F93DF9300
:100F8000CF9300D00F92CDB7DEB79B838A831982AF
:100F90008981282F30E08A819B818C01020F131FE9
:100FA0000E948507F80180830FC089818F5F898344
:100FB0008981282F30E08A819B818C01020F131FC9
:100FC0000E948507F80180838981282F30E08A817B
:100FD0009B81FC01E20FF31F8081833231F789810D
:100FE000282F30E08A819B81FC01E20FF31F1082E1
:100FF0000F900F900F90CF91DF911F910F91089557
:10100000DF93CF9300D000D00F92CDB7DEB78983A6
:101010006A834B838A81883008F0D5C08981843007
:1010200008F0D1C08981282F30E03D832C838C814A
:101030009D818130910509F443C02C813D8122308E
:1010400031052CF48C819D81009771F0BCC02C81FE
:101050003D812230310509F45FC08C819D81833050
:10106000910509F485C0AFC08B818130A1F4AAE35A
:10107000B0E0EAE3F0E08081482F8A81282F30E059
:1010800081E090E0022E02C0880F991F0A94E2F7D7
:10109000842B8C9398C0AAE3B0E0EAE3F0E080816F
:1010A000482F8A81282F30E081E090E0022E02C094
:1010B000880F991F0A94E2F7809584238C9383C04C
:1010C0008B818130A1F4A7E3B0E0E7E3F0E0808119
:1010D000482F8A81282F30E081E090E0022E02C064
:1010E000880F991F0A94E2F7842B8C936CC0A7E3B6
:1010F000B0E0E7E3F0E08081482F8A81282F30E0DC
:1011000081E090E0022E02C0880F991F0A94E2F756
:10111000809584238C9357C08B818130A1F4A4E304
:10112000B0E0E4E3F0E08081482F8A81282F30E0AE
:1011300081E090E0022E02C0880F991F0A94E2F726
:10114000842B8C9340C0A4E3B0E0E4E3F0E0808122
:10115000482F8A81282F30E081E090E0022E02C0E3
:10116000880F991F0A94E2F7809584238C932BC0F3
:101170008B818130A1F4A1E3B0E0E1E3F0E0808174
:10118000482F8A81282F30E081E090E0022E02C0B3
:10119000880F991F0A94E2F7842B8C9314C0A1E363
:1011A000B0E0E1E3F0E08081482F8A81282F30E031
:1011B00081E090E0022E02C0880F991F0A94E2F7A6
:1011C000809584238C930F900F900F900F900F9029
:1011D000CF91DF910895DF93CF9300D000D00F928D
:1011E000CDB7DEB789836A834B838A81883008F064
:1011F000D5C08981843008F0D1C08981282F30E0A2
:101200003D832C838C819D818130910509F443C0FD
:101210002C813D81223031052CF48C819D810097F9
:1012200071F0BCC02C813D812230310509F45FC0D2
:101230008C819D818330910509F485C0AFC08B817D
:101240008130A1F4ABE3B0E0EBE3F0E08081482F24
:101250008A81282F30E081E090E0022E02C0880FC2
:10126000991F0A94E2F7842B8C9398C0ABE3B0E00B
:10127000EBE3F0E08081482F8A81282F30E081E085
:1012800090E0022E02C0880F991F0A94E2F7809521
:1012900084238C9383C08B818130A1F4A8E3B0E0D8
:1012A000E8E3F0E08081482F8A81282F30E081E058
:1012B00090E0022E02C0880F991F0A94E2F7842B57
:1012C0008C936CC0A8E3B0E0E8E3F0E08081482FA5
:1012D0008A81282F30E081E090E0022E02C0880F42
:1012E000991F0A94E2F7809584238C9357C08B81D1
:1012F0008130A1F4A5E3B0E0E5E3F0E08081482F80
:101300008A81282F30E081E090E0022E02C0880F11
:10131000991F0A94E2F7842B8C9340C0A5E3B0E0B8
:10132000E5E3F0E08081482F8A81282F30E081E0DA
:1013300090E0022E02C0880F991F0A94E2F7809570
:1013400084238C932BC08B818130A1F4A2E3B0E085
:10135000E2E3F0E08081482F8A81282F30E081E0AD
:1013600090E0022E02C0880F991F0A94E2F7842BA6
:101370008C9314C0A2E3B0E0E2E3F0E08081482F58
:101380008A81282F30E081E090E0022E02C0880F91
:10139000991F0A94E2F7809584238C930F900F9005
:1013A0000F900F900F90CF91DF910895DF93CF931F
:1013B00000D000D00F92CDB7DEB78A836B8319823D
:1013C0008B81883008F084C08A81843008F080C026
:1013D0008A81282F30E03D832C834C815D81413010
:1013E000510579F18C819D818230910534F42C81F5
:1013F0003D812115310569F06BC04C815D81423022
:101400005105B9F18C819D818330910509F449C062
:101410005FC0E9E3F0E08081282F30E08B81882FE6
:1014200090E0A90102C0559547958A95E2F7CA0157
:1014300081709070882319F081E0898349C01982F6
:1014400047C0E6E3F0E08081282F30E08B81882FD1
:1014500090E0A90102C0559547958A95E2F7CA0127
:1014600081709070882319F081E0898331C01982DE
:101470002FC0E3E3F0E08081282F30E08B81882FBC
:1014800090E0A90102C0559547958A95E2F7CA01F7
:1014900081709070882319F081E0898319C01982C6
:1014A00017C0E0E3F0E08081282F30E08B81882FA7
:1014B00090E0A90102C0559547958A95E2F7CA01C7
:1014C00081709070882319F081E0898301C01982AE
:1014D00089810F900F900F900F900F90CF91DF9117
:1014E0000895DF93CF9300D000D0CDB7DEB78983C6
:1014F0006A838981843090F58981282F30E03C838C
:101500002B838B819C8181309105D1F02B813C8193
:10151000223031052CF48B819C81009761F01EC034
:101520002B813C812230310581F08B819C8183307D
:10153000910581F013C0EAE3F0E08A8180830EC058
:10154000E7E3F0E08A81808309C0E4E3F0E08A8188
:10155000808304C0E1E3F0E08A8180830F900F90E4
:101560000F900F90CF91DF910895DF93CF9300D02C
:1015700000D0CDB7DEB789836A838981843090F546
:101580008981282F30E03C832B838B819C818130A3
:101590009105D1F02B813C81223031052CF48B81D7
:1015A0009C81009761F01EC02B813C812230310567
:1015B00081F08B819C818330910581F013C0EBE336
:1015C000F0E08A8180830EC0E8E3F0E08A818083C6
:1015D00009C0E5E3F0E08A81808304C0E2E3F0E043
:1015E0008A8180830F900F900F900F90CF91DF91A1
:1015F0000895DF93CF9300D000D0CDB7DEB78A83B4
:1016000019828A81843090F58A81282F30E03C83CA
:101610002B838B819C8181309105D1F02B813C8182
:10162000223031052CF48B819C81009761F01EC023
:101630002B813C812230310581F08B819C8183306C
:10164000910581F013C0E9E3F0E0808189830EC049
:10165000E6E3F0E08081898309C0E3E3F0E0808184
:10166000898304C0E0E3F0E08081898389810F9061
:101670000F900F900F90CF91DF910895DF93CF934C
:10168000CDB7DEB72E970FB6F894DEBF0FBECDBF35
:1016900081E060E041E00E94000881E061E041E01B
:1016A0000E94000880E090E0A0EAB1E48B879C876C
:1016B000AD87BE876B857C858D859E8520E030E07B
:1016C0004AEF54E40E949C02DC01CB018F8398878F
:1016D000A987BA876F81788589859A8520E030E06F
:1016E00040E85FE30E94F60388232CF481E090E059
:1016F0009E838D833FC06F81788589859A8520E0A0
:101700003FEF4FE757E40E94960318164CF56B85A0
:101710007C858D859E8520E030E040E251E40E948A
:101720009C02DC01CB01BC01CD010E94C600DC01A2
:10173000CB019E838D830FC088EC90E09C838B83CC
:101740008B819C810197F1F79C838B838D819E8196
:1017500001979E838D838D819E81009769F714C0C8
:101760006F81788589859A850E94C600DC01CB014E
:101770009E838D838D819E819A83898389819A81BD
:101780000197F1F79A83898380E06FEF0E94710AD5
:1017900088E30E94DA0B8CE00E94DA0B81E00E9461
:1017A000DA0B2E960FB6F894DEBF0FBECDBFCF91E9
:1017B000DF910895DF93CF93CDB7DEB7E9970FB6EA
:1017C000F894DEBF0FBECDBF89AF81E060E040E09E
:1017D0000E94EB0880E090E0A0E8BFE38DAB9EABF9
:1017E000AFABB8AF6DA97EA98FA998AD20E030E06E
:1017F0004AEF54E40E949C02DC01CB0189AB9AAB16
:10180000ABABBCAB69A97AA98BA99CA920E030E05D
:1018100040E85FE30E94F60388232CF481E090E027
:1018200098AB8FA73FC069A97AA98BA99CA920E092
:101830003FEF4FE757E40E94960318164CF56DA949
:101840007EA98FA998AD20E030E040E251E40E94EB
:101850009C02DC01CB01BC01CD010E94C600DC0171
:10186000CB0198AB8FA70FC088EC90E09EA78DA707
:101870008DA59EA50197F1F79EA78DA78FA598A985
:10188000019798AB8FA78FA598A9009769F714C007
:1018900069A97AA98BA99CA90E94C600DC01CB0189
:1018A00098AB8FA78FA598A99CA78BA78BA59CA564
:1018B0000197F1F79CA78BA781E061E041E00E94CE
:1018C000EB0880E090E0A0E8BFE38FA398A7A9A76A
:1018D000BAA76FA178A589A59AA520E030E04AEFC4
:1018E00054E40E949C02DC01CB018BA39CA3ADA31A
:1018F000BEA36BA17CA18DA19EA120E030E040E8B9
:101900005FE30E94F60388232CF481E090E09AA321
:1019100089A33FC06BA17CA18DA19EA120E03FEFD8
:101920004FE757E40E94960318164CF56FA178A56F
:1019300089A59AA520E030E040E251E40E949C0293
:10194000DC01CB01BC01CD010E94C600DC01CB0152
:101950009AA389A30FC088EC90E098A38F8F8F8DF6
:1019600098A10197F1F798A38F8F89A19AA1019768
:101970009AA389A389A19AA1009769F714C06BA1C2
:101980007CA18DA19EA10E94C600DC01CB019AA37F
:1019900089A389A19AA19E8F8D8F8D8D9E8D019790
:1019A000F1F79E8F8D8F80E069AD0E94B50A80E0CF
:1019B00090E0A0E8BFE3898F9A8FAB8FBC8F698DD1
:1019C0007A8D8B8D9C8D20E030E04AEF54E40E94AC
:1019D0009C02DC01CB018D8B9E8BAF8BB88F6D8908
:1019E0007E898F89988D20E030E040E85FE30E9497
:1019F000F60388232CF481E090E09C8B8B8B3FC016
:101A00006D897E898F89988D20E03FEF4FE757E4FD
:101A10000E94960318164CF5698D7A8D8B8D9C8DDE
:101A200020E030E040E251E40E949C02DC01CB0166
:101A3000BC01CD010E94C600DC01CB019C8B8B8BCD
:101A40000FC088EC90E09A8B898B89899A890197DD
:101A5000F1F79A8B898B8B899C8901979C8B8B8B57
:101A60008B899C89009769F714C06D897E898F895D
:101A7000988D0E94C600DC01CB019C8B8B8B8B89DF
:101A80009C89988B8F878F8598890197F1F7988B20
:101A90008F8781E061E040E00E94EB0880E090E009
:101AA000A0E8BFE38B879C87AD87BE876B857C856D
:101AB0008D859E8520E030E04AEF54E40E949C0230
:101AC000DC01CB018F839887A987BA876F817885DE
:101AD00089859A8520E030E040E85FE30E94F603C4
:101AE00088232CF481E090E09E838D833FC06F813A
:101AF000788589859A8520E03FEF4FE757E40E947B
:101B0000960318164CF56B857C858D859E8520E0A7
:101B100030E040E251E40E949C02DC01CB01BC01B8
:101B2000CD010E94C600DC01CB019E838D830FC0D6
:101B300088EC90E09C838B838B819C810197F1F7EB
:101B40009C838B838D819E8101979E838D838D8164
:101B50009E81009769F714C06F81788589859A8581
:101B60000E94C600DC01CB019E838D838D819E8106
:101B70009A83898389819A810197F1F79A8389836E
:101B8000E9960FB6F894DEBF0FBECDBFCF91DF91BF
:101B90000895DF93CF93CDB7DEB7E9970FB6F894EA
:101BA000DEBF0FBECDBF89AF81E060E041E00E94A3
:101BB000EB0880E090E0A0E8BFE38DAB9EABAFAB5D
:101BC000B8AF6DA97EA98FA998AD20E030E04AEFAB
:101BD00054E40E949C02DC01CB0189AB9AABABAB15
:101BE000BCAB69A97AA98BA99CA920E030E040E8A8
:101BF0005FE30E94F60388232CF481E090E098AB29
:101C00008FA73FC069A97AA98BA99CA920E03FEFC3
:101C10004FE757E40E94960318164CF56DA97EA96C
:101C20008FA998AD20E030E040E251E40E949C0290
:101C3000DC01CB01BC01CD010E94C600DC01CB015F
:101C400098AB8FA70FC088EC90E09EA78DA78DA5BD
:101C50009EA50197F1F79EA78DA78FA598A901973B
:101C600098AB8FA78FA598A9009769F714C069A9A9
:101C70007AA98BA99CA90E94C600DC01CB0198AB74
:101C80008FA78FA598A99CA78BA78BA59CA501972B
:101C9000F1F79CA78BA781E061E041E00E94EB088F
:101CA00080E090E0A0E8BFE38FA398A7A9A7BAA718
:101CB0006FA178A589A59AA520E030E04AEF54E409
:101CC0000E949C02DC01CB018BA39CA3ADA3BEA30D
:101CD0006BA17CA18DA19EA120E030E040E85FE3F4
:101CE0000E94F60388232CF481E090E09AA389A354
:101CF0003FC06BA17CA18DA19EA120E03FEF4FE7EB
:101D000057E40E94960318164CF56FA178A589A593
:101D10009AA520E030E040E251E40E949C02DC0100
:101D2000CB01BC01CD010E94C600DC01CB019AA30E
:101D300089A30FC088EC90E098A38F8F8F8D98A116
:101D40000197F1F798A38F8F89A19AA101979AA380
:101D500089A389A19AA1009769F714C06BA17CA1FE
:101D60008DA19EA10E94C600DC01CB019AA389A38C
:101D700089A19AA19E8F8D8F8D8D9E8D0197F1F7F0
:101D80009E8F8D8F80E069AD0E94B50A80E090E063
:101D9000A0E8BFE3898F9A8FAB8FBC8F698D7A8D56
:101DA0008B8D9C8D20E030E04AEF54E40E949C0231
:101DB000DC01CB018D8B9E8BAF8BB88F6D897E89BB
:101DC0008F89988D20E030E040E85FE30E94F603C1
:101DD00088232CF481E090E09C8B8B8B3FC06D8935
:101DE0007E898F89988D20E03FEF4FE757E40E946E
:101DF000960318164CF5698D7A8D8B8D9C8D20E09D
:101E000030E040E251E40E949C02DC01CB01BC01C5
:101E1000CD010E94C600DC01CB019C8B8B8B0FC0D7
:101E200088EC90E09A8B898B89899A890197F1F7E0
:101E30009A8B898B8B899C8901979C8B8B8B8B8947
:101E40009C89009769F714C06D897E898F89988D68
:101E50000E94C600DC01CB019C8B8B8B8B899C89FB
:101E6000988B8F878F8598890197F1F7988B8F874B
:101E700081E061E040E00E94EB0880E090E0A0E8B3
:101E8000BFE38B879C87AD87BE876B857C858D85FF
:101E90009E8520E030E04AEF54E40E949C02DC0181
:101EA000CB018F839887A987BA876F8178858985C9
:101EB0009A8520E030E040E85FE30E94F603882343
:101EC0002CF481E090E09E838D833FC06F81788504
:101ED00089859A8520E03FEF4FE757E40E949603FB
:101EE00018164CF56B857C858D859E8520E030E04D
:101EF00040E251E40E949C02DC01CB01BC01CD0117
:101F00000E94C600DC01CB019E838D830FC088EC4C
:101F100090E09C838B838B819C810197F1F79C835C
:101F20008B838D819E8101979E838D838D819E8180
:101F3000009769F714C06F81788589859A850E941A
:101F4000C600DC01CB019E838D838D819E819A83A7
:101F5000898389819A810197F1F79A838983E99628
:101F60000FB6F894DEBF0FBECDBFCF91DF910895BD
:101F7000DF93CF9300D00F92CDB7DEB79B838A83D8
:101F800019820EC08981282F30E08A819B81FC0153
:101F9000E20FF31F80810E94C90D89818F5F8983C1
:101FA0008981282F30E08A819B81FC01E20FF31F99
:101FB0008081882339F70F900F900F90CF91DF9198
:101FC0000895DF93CF9300D000D00F92CDB7DEB746
:101FD0008A836B838A81282F30E03D832C838C8118
:101FE0009D8181309105C1F02C813D8122303105E8
:101FF0002CF48C819D81009761F019C02C813D816A
:102000002230310569F08C819D818330910561F02A
:102010000EC08B8189830BC08B81805C898307C054
:102020008B81805F898303C08B81805B89838981F9
:1020300080680E94DA0B0F900F900F900F900F9016
:10204000CF91DF910895DF93CF9300D000D0CDB72B
:10205000DEB789836A835C834B8389816A810E94AE
:10206000E10F8B819C810E94B80F0F900F900F9011
:102070000F90CF91DF910895DF93CF93CDB7DEB767
:1020800062970FB6F894DEBF0FBECDBF9A8B898BD7
:1020900089899A899E012F5F3F4FB9014AE050E03C
:1020A0000E94101DCE0101960E94B80F62960FB6D5
:1020B000F894DEBF0FBECDBFCF91DF9108950F938F
:1020C0001F93DF93CF93CDB7DEB764970FB6F89425
:1020D000DEBF0FBECDBF698B7A8B8B8B9C8B8989C2
:1020E0009A89AB89BC89BC01CD0146E021E0FE01A3
:1020F00031968F010E94EF1CCE0101960E94B80F0D
:1021000064960FB6F894DEBF0FBECDBFCF91DF91BE
:102110001F910F910895DF93CF93CDB7DEB781E084
:102120000E94DA0BCF91DF910895DF93CF93CDB763
:10213000DEB760970FB6F894DEBF0FBECDBF82E06A
:1021400060E040E00E94000882E061E040E00E9420
:10215000000882E062E040E00E94000882E063E064
:1021600040E00E94000882E064E040E00E94000835
:1021700082E065E040E00E94000882E066E040E026
:102180000E94000882E067E040E00E9400081F868D
:10219000ABC082E06F8541E00E94000882E06F855D
:1021A00040E00E94EB08188A22C08889982F9C5F23
:1021B00082E0692F0E94D6098823B1F48F85882F89
:1021C00090E0880F991F880F991F982F8889890F91
:1021D0008F5F0E94791160960FB6F894DEBF0FBE34
:1021E000CDBFCF91DF91089588898F5F888B8889D3
:1021F0008430D8F282E06F8540E00E94000880E0E1
:1022000090E0A0EAB0E48B879C87AD87BE876B85A2
:102210007C858D859E8520E030E04AEF54E40E9465
:102220009C02DC01CB018F839887A987BA876F81D5
:10223000788589859A8520E030E040E85FE30E9458
:10224000F60388232CF481E090E09E838D833FC0C9
:102250006F81788589859A8520E03FEF4FE757E4C5
:102260000E94960318164CF56B857C858D859E859E
:1022700020E030E040E251E40E949C02DC01CB010E
:10228000BC01CD010E94C600DC01CB019E838D8381
:102290000FC088EC90E09C838B838B819C8101979D
:1022A000F1F79C838B838D819E8101979E838D8323
:1022B0008D819E81009769F714C06F81788589852B
:1022C0009A850E94C600DC01CB019E838D838D819F
:1022D0009E819A83898389819A810197F1F79A83F4
:1022E00089838F858F5F8F878F85843008F451CFE6
:1022F0004ECFDF93CF9300D000D0CDB7DEB78A8327
:1023000019828A81282F30E03C832B838B819C812A
:102310008830910509F470C02B813C81293031054A
:102320005CF58B819C818430910509F459C02B8127
:102330003C81253031059CF48B819C818230910554
:1023400009F448C02B813C81233031050CF045C095
:102350008B819C818130910509F439C067C02B8144
:102360003C812630310509F441C08B819C81873046
:1023700091050CF03EC037C02B813C812C303105DB
:1023800009F446C08B819C818D3091055CF42B81D2
:102390003C812A303105B1F18B819C818B309105D4
:1023A000A4F52DC02B813C812E303105B9F18B81F4
:1023B0009C818E3091057CF12B813C812F30310541
:1023C00079F18B819C818031910569F12FC087E083
:1023D00089832EC088E089832BC089E0898328C047
:1023E00085E2898325C084E0898322C085E08983D2
:1023F0001FC086E089831CC08AE2898319C081E0FE
:10240000898316C082E0898313C083E0898310C06A
:102410008DE289830DC08DE089830AC0198208C0CE
:102420008DE3898305C08BE2898302C08A81898319
:1024300089810F900F900F900F90CF91DF910895A9
:102440000F931F93DF93CF93CDB7DEB7CD55D04019
:102450000FB6F894DEBF0FBECDBF7894CE01885B77
:102460009F4F6B969FAF8EAF6B9727E031E06D96D5
:102470003FAF2EAF6D9735E06E963FAF6E976D967E
:10248000EEADFFAD6D9700806D962EAD3FAD6D97B3
:102490002F5F3F4F6D963FAF2EAF6D976B96EEADB2
:1024A000FFAD6B9700826B962EAD3FAD6B972F5FA4
:1024B0003F4F6B963FAF2EAF6B976E963FAD6E97CB
:1024C00031506E963FAF6E976E968FAD6E978823A4
:1024D000B1F6CE01885B9F4F0E9404070E943E0B1D
:1024E000CE01835B9F4F0E940C15FE01ED5BFF4FF9
:1024F00080E090E0A6E9B3E480839183A283B38374
:102500008E01015C1F4FFE01ED5BFF4F6081718109
:102510008281938120E030E04AEF54E40E949C02E3
:10252000DC01CB01F80180839183A283B383FE0198
:10253000FF96608171818281938120E030E040E8E4
:102540005FE30E94F60388232CF481E090E09EAFC5
:102550008DAF46C0FE01FF966081718182819381BB
:1025600020E03FEF4FE757E40E949603181664F50A
:10257000FE01ED5BFF4F608171818281938120E0DC
:1025800030E040E251E40E949C02DC01CB01BC013E
:10259000CD010E94C600DC01CB019EAF8DAF0FC004
:1025A00088EC90E09CAF8BAF8BAD9CAD0197F1F7C1
:1025B0009CAF8BAF8DAD9EAD01979EAF8DAF8DADB6
:1025C0009EAD009769F716C0FE01FF96608171818C
:1025D000828193810E94C600DC01CB019EAF8DAF4A
:1025E0008DAD9EAD9AAF89AF89AD9AAD0197F1F7E8
:1025F0009AAF89AFCE018E5A9F4F0E94321680E06B
:1026000090E0A6E9B3E48DAB9EABAFABB8AF6DA9DC
:102610007EA98FA998AD20E030E04AEF54E40E94F3
:102620009C02DC01CB0189AB9AABABABBCAB69A91B
:102630007AA98BA99CA920E030E040E85FE30E94E2
:10264000F60388232CF481E090E098AB8FA73FC07D
:1026500069A97AA98BA99CA920E03FEF4FE757E42D
:102660000E94960318164CF56DA97EA98FA998AD06
:1026700020E030E040E251E40E949C02DC01CB010A
:10268000BC01CD010E94C600DC01CB0198AB8FA735
:102690000FC088EC90E09EA78DA78DA59EA5019701
:1026A000F1F79EA78DA78FA598A9019798AB8FA743
:1026B0008FA598A9009769F714C069A97AA98BA971
:1026C0009CA90E94C600DC01CB0198AB8FA78FA507
:1026D00098A99CA78BA78BA59CA50197F1F79CA710
:1026E0008BA7CE01835B9F4F9E012E5A3F4FB901AE
:1026F0000E94581780E090E0A6E9B3E48FA398A762
:10270000A9A7BAA76FA178A589A59AA520E030E06E
:102710004AEF54E40E949C02DC01CB018BA39CA3F2
:10272000ADA3BEA36BA17CA18DA19EA120E030E052
:1027300040E85FE30E94F60388232CF481E090E0F8
:102740009AA389A33FC06BA17CA18DA19EA120E08B
:102750003FEF4FE757E40E94960318164CF56FA120
:1027600078A589A59AA520E030E040E251E40E94D6
:102770009C02DC01CB01BC01CD010E94C600DC0142
:10278000CB019AA389A30FC088EC90E098A38F8F08
:102790008F8D98A10197F1F798A38F8F89A19AA1A6
:1027A00001979AA389A389A19AA1009769F714C0F8
:1027B0006BA17CA18DA19EA10E94C600DC01CB0172
:1027C0009AA389A389A19AA19E8F8D8F8D8D9E8DAD
:1027D0000197F1F79E8F8D8F84E00E946E070E9413
:1027E0008507FE01E95BFF4F8083FE01E95BFF4F38
:1027F0008081282F30E069963FAF2EAF69976996A8
:102800008EAD9FAD69978130910509F489C06996B5
:10281000EEADFFAD6997E230F10509F061CE0E949F
:102820008B1020E630E080E060E0A9010E942310D8
:1028300080E090E0A6E9B3E4898F9A8FAB8FBC8FDC
:10284000698D7A8D8B8D9C8D20E030E04AEF54E4C9
:102850000E949C02DC01CB018D8B9E8BAF8BB88FCD
:102860006D897E898F89988D20E030E040E85FE3B4
:102870000E94F60388232CF481E090E09C8B8B8BE4
:102880003FC06D897E898F89988D20E03FEF4FE7AB
:1028900057E40E94960318164CF5698D7A8D8B8D3E
:1028A0009C8D20E030E040E251E40E949C02DC017B
:1028B000CB01BC01CD010E94C600DC01CB019C8B89
:1028C0008B8B0FC088EC90E09A8B898B89899A89D1
:1028D0000197F1F79A8B898B8B899C8901979C8B47
:1028E0008B8B8B899C89009769F714C06D897E89D1
:1028F0008F89988D0E94C600DC01CB019C8B8B8B4D
:102900008B899C89988B8F878F8598890197F1F7A0
:10291000988B8F87CE01835B9F4F0E94341AE0CD46
:102920000E948B102EE630E080E060E0A9010E945A
:10293000231080E090E0A6E9B3E48B879C87AD8705
:10294000BE876B857C858D859E8520E030E04AEFD3
:1029500054E40E949C02DC01CB018F839887A987F5
:10296000BA876F81788589859A8520E030E040E8D4
:102970005FE30E94F60388232CF481E090E09E83BD
:102980008D833FC06F81788589859A8520E03FEFF0
:102990004FE757E40E94960318164CF56B857C852B
:1029A0008D859E8520E030E040E251E40E949C024B
:1029B000DC01CB01BC01CD010E94C600DC01CB01D2
:1029C0009E838D830FC088EC90E09C838B838B81EA
:1029D0009C810197F1F79C838B838D819E81019768
:1029E0009E838D838D819E81009769F779CD6F815C
:1029F000788589859A850E94C600DC01CB019E837B
:102A00008D838D819E819A83898389819A810197A3
:102A1000F1F79A83898364CDDF93CF93CDB7DEB787
:102A2000A0970FB6F894DEBF0FBECDBF98A38F8FCF
:102A30000E948B1020E830E080E060E0A9010E9455
:102A4000231081E060E00E94E10F1E8E88C00E948A
:102A500095108D8F8D8D8A3080F48E8D282F30E0EB
:102A60008F8D98A1FC01E20FF31F8D8D80838AE288
:102A70000E94C90D8E8D8F5F8E8F80E090E0AAEF4F
:102A8000B3E4898F9A8FAB8FBC8F698D7A8D8B8DD4
:102A90009C8D20E030E04AEF54E40E949C02DC016F
:102AA000CB018D8B9E8BAF8BB88F6D897E898F8983
:102AB000988D20E030E040E85FE30E94F603882331
:102AC0002CF481E090E09C8B8B8B3FC06D897E89DC
:102AD0008F89988D20E03FEF4FE757E40E949603DF
:102AE00018164CF5698D7A8D8B8D9C8D20E030E029
:102AF00040E251E40E949C02DC01CB01BC01CD010B
:102B00000E94C600DC01CB019C8B8B8B0FC088EC34
:102B100090E09A8B898B89899A890197F1F79A8B32
:102B2000898B8B899C8901979C8B8B8B8B899C894A
:102B3000009769F714C06D897E898F89988D0E94EE
:102B4000C600DC01CB019C8B8B8B8B899C89988B7D
:102B50008F878F8598890197F1F7988B8F878E8D56
:102B6000853008F474CF0E9495108D33E1F780E032
:102B700090E0AAEFB3E48B879C87AD87BE876B8517
:102B80007C858D859E8520E030E04AEF54E40E94EC
:102B90009C02DC01CB018F839887A987BA876F815C
:102BA000788589859A8520E030E040E85FE30E94DF
:102BB000F60388232CF481E090E09E838D833FC050
:102BC0006F81788589859A8520E03FEF4FE757E44C
:102BD0000E94960318164CF56B857C858D859E8525
:102BE00020E030E040E251E40E949C02DC01CB0195
:102BF000BC01CD010E94C600DC01CB019E838D8308
:102C00000FC088EC90E09C838B838B819C81019723
:102C1000F1F79C838B838D819E8101979E838D83A9
:102C20008D819E81009769F714C06F8178858985B1
:102C30009A850E94C600DC01CB019E838D838D8125
:102C40009E819A83898389819A810197F1F79A837A
:102C50008983A0960FB6F894DEBF0FBECDBFCF918B
:102C6000DF910895DF93CF93CDB7DEB7A0970FB66E
:102C7000F894DEBF0FBECDBF98A38F8F0E948B103C
:102C80002CE830E080E060E0A9010E94231081E0A0
:102C900060E00E94E10F1E8E88C00E9495108D8F0B
:102CA0008D8D8A3080F48E8D282F30E08F8D98A105
:102CB000FC01E20FF31F8D8D80838AE20E94C90D13
:102CC0008E8D8F5F8E8F80E090E0AAEFB3E4898FC6
:102CD0009A8FAB8FBC8F698D7A8D8B8D9C8D20E008
:102CE00030E04AEF54E40E949C02DC01CB018D8B62
:102CF0009E8BAF8BB88F6D897E898F89988D20E0F0
:102D000030E040E85FE30E94F60388232CF481E082
:102D100090E09C8B8B8B3FC06D897E898F89988DCD
:102D200020E03FEF4FE757E40E94960318164CF55A
:102D3000698D7A8D8B8D9C8D20E030E040E251E4EE
:102D40000E949C02DC01CB01BC01CD010E94C600A7
:102D5000DC01CB019C8B8B8B0FC088EC90E09A8BB5
:102D6000898B89899A890197F1F79A8B898B8B894D
:102D70009C8901979C8B8B8B8B899C89009769F729
:102D800014C06D897E898F89988D0E94C600DC01F0
:102D9000CB019C8B8B8B8B899C89988B8F878F85A4
:102DA00098890197F1F7988B8F878E8D853008F47D
:102DB00074CF0E9495108D33E1F780E090E0AAEF88
:102DC000B3E48B879C87AD87BE876B857C858D85BB
:102DD0009E8520E030E04AEF54E40E949C02DC0132
:102DE000CB018F839887A987BA876F81788589857A
:102DF0009A8520E030E040E85FE30E94F6038823F4
:102E00002CF481E090E09E838D833FC06F817885B4
:102E100089859A8520E03FEF4FE757E40E949603AB
:102E200018164CF56B857C858D859E8520E030E0FD
:102E300040E251E40E949C02DC01CB01BC01CD01C7
:102E40000E94C600DC01CB019E838D830FC088ECFD
:102E500090E09C838B838B819C810197F1F79C830D
:102E60008B838D819E8101979E838D838D819E8131
:102E7000009769F714C06F81788589859A850E94CB
:102E8000C600DC01CB019E838D838D819E819A8358
:102E9000898389819A810197F1F79A838983A09622
:102EA0000FB6F894DEBF0FBECDBFCF91DF9108956E
:102EB000DF93CF93CDB7DEB7E0970FB6F894DEBFC0
:102EC0000FBECDBF9EA78DA778AB6FA70E948B10BA
:102ED0002BE930E080E060E0A9010E94231081E04E
:102EE00060E00E94E10F0E9485078823E1F71CA69D
:102EF00080C08CA5282F30E08DA59EA5FC01E20F97
:102F0000F31F80810E946E0780E090E0A0E7B1E4AB
:102F10008FA398A7A9A7BAA76FA178A589A59AA5F5
:102F200020E030E04AEF54E40E949C02DC01CB0137
:102F30008BA39CA3ADA3BEA36BA17CA18DA19EA1DD
:102F400020E030E040E85FE30E94F60388232CF4A1
:102F500081E090E09AA389A33FC06BA17CA18DA1E1
:102F60009EA120E03FEF4FE757E40E94960318161A
:102F70004CF56FA178A589A59AA520E030E040E244
:102F800051E40E949C02DC01CB01BC01CD010E94F6
:102F9000C600DC01CB019AA389A30FC088EC90E0A6
:102FA00098A38F8F8F8D98A10197F1F798A38F8F9A
:102FB00089A19AA101979AA389A389A19AA10097AF
:102FC00069F714C06BA17CA18DA19EA10E94C600CF
:102FD000DC01CB019AA389A389A19AA19E8F8D8F31
:102FE0008D8D9E8D0197F1F79E8F8D8F8CA58F5FB4
:102FF0008CA78CA5853008F47CCF80E090E0AAEF08
:10300000B3E4898F9A8FAB8FBC8F698D7A8D8B8D4E
:103010009C8D20E030E04AEF54E40E949C02DC01E9
:10302000CB018D8B9E8BAF8BB88F6D897E898F89FD
:10303000988D20E030E040E85FE30E94F6038823AB
:103040002CF481E090E09C8B8B8B3FC06D897E8956
:103050008F89988D20E03FEF4FE757E40E94960359
:1030600018164CF5698D7A8D8B8D9C8D20E030E0A3
:1030700040E251E40E949C02DC01CB01BC01CD0185
:103080000E94C600DC01CB019C8B8B8B0FC088ECAF
:1030900090E09A8B898B89899A890197F1F79A8BAD
:1030A000898B8B899C8901979C8B8B8B8B899C89C5
:1030B000009769F714C06D897E898F89988D0E9469
:1030C000C600DC01CB019C8B8B8B8B899C89988BF8
:1030D0008F878F8598890197F1F7988B8F871BA62B
:1030E00080C08BA5282F30E08FA598A9FC01E20FA6
:1030F000F31F80810E946E0780E090E0A0E7B1E4BA
:103100008B879C87AD87BE876B857C858D859E85EB
:1031100020E030E04AEF54E40E949C02DC01CB0145
:103120008F839887A987BA876F81788589859A85E3
:1031300020E030E040E85FE30E94F60388232CF4AF
:1031400081E090E09E838D833FC06F817885898583
:103150009A8520E03FEF4FE757E40E949603181648
:103160004CF56B857C858D859E8520E030E040E2C6
:1031700051E40E949C02DC01CB01BC01CD010E9404
:10318000C600DC01CB019E838D830FC088EC90E0EC
:103190009C838B838B819C810197F1F79C838B832C
:1031A0008D819E8101979E838D838D819E81009765
:1031B00069F714C06F81788589859A850E94C60059
:1031C000DC01CB019E838D838D819E819A838983CF
:1031D00089819A810197F1F79A8389838BA58F5F03
:1031E0008BA78BA5853008F47CCFE0960FB6F894BA
:1031F000DEBF0FBECDBFCF91DF910895DF93CF9398
:10320000CDB7DEB761970FB6F894DEBF0FBECDBF66
:10321000998B888B0E948B102BE930E080E060E076
:10322000A9010E94231081E060E00E94E10F0E944A
:1032300085078530E1F71F8680C08F85282F30E015
:1032400088899989FC01E20FF31F80810E946E0733
:1032500080E090E0A0E7B1E48B879C87AD87BE87D4
:103260006B857C858D859E8520E030E04AEF54E4B7
:103270000E949C02DC01CB018F839887A987BA87C3
:103280006F81788589859A8520E030E040E85FE3AA
:103290000E94F60388232CF481E090E09E838D83C6
:1032A0003FC06F81788589859A8520E03FEF4FE7A1
:1032B00057E40E94960318164CF56B857C858D8526
:1032C0009E8520E030E040E251E40E949C02DC0157
:1032D000CB01BC01CD010E94C600DC01CB019E8365
:1032E0008D830FC088EC90E09C838B838B819C81C5
:1032F0000197F1F79C838B838D819E8101979E833B
:103300008D838D819E81009769F714C06F817885C8
:1033100089859A850E94C600DC01CB019E838D833E
:103320008D819E819A83898389819A810197F1F7A2
:103330009A8389838F858F5F8F878F85853008F487
:103340007CCF61960FB6F894DEBF0FBECDBFCF9194
:10335000DF910895DF93CF93CDB7DEB7809115014C
:103360008F5F80931501CF91DF910895DF93CF9305
:10337000CDB7DEB72C970FB6F894DEBF0FBECDBF2A
:103380008F8310921501CE01019699878887ECE012
:10339000F1E0FB87EA87F6E0FC87EA85FB850080A1
:1033A0008A859B8501969B878A87E885F9850082B7
:1033B000888599850196998788879C8591509C87F7
:1033C000EC85EE2351F7CE0101960E9488068AEA29
:1033D00099E10E94F206909115018F819817D9F713
:1033E0000E94D0062C960FB6F894DEBF0FBECDBF5C
:1033F000CF91DF910895DF93CF93CDB7DEB70E94D1
:103400008B1028EA30E080E064E0A9010E942310DC
:1034100020EB30E081E062E0A9010E9423108FE000
:103420000E94B6190E948B102AEB30E080E063E026
:10343000A9010E94231083E00E94B6190E948B10FC
:1034400028EA30E080E064E0A9010E94231022EC29
:1034500030E081E063E0A9010E9423108FE00E9428
:10346000B619CF91DF910895DF93CF93CDB7DEB733
:1034700065970FB6F894DEBF0FBECDBF9B8B8A8BCE
:103480000E948B102AEC30E080E061E0A9010E94EC
:10349000231028ED30E081E061E0A9010E942310B3
:1034A0000E949510898B0E9485078630E1F747C0FE
:1034B0008989282F30E03D8B2C8B8C899D898B321C
:1034C000910531F02C893D892D323105B1F029C0AB
:1034D00087E00E946E078A899B890E940C158A8961
:1034E0009B890E94FE1883E00E946E070E94850758
:1034F000888B88890E94241B14C088E00E946E0774
:103500008A899B890E940C158A899B890E94FE18D2
:1035100083E00E946E070E9485078F878F850E9437
:10352000DE1B8889823039F08F85823021F08091CE
:103530000601882321F483E08093060105C0809171
:103540000601882309F0B4CF8F85823009F473C057
:1035500080E090E0A6E9B3E48B879C87AD87BE87C7
:103560006B857C858D859E8520E030E04AEF54E4B4
:103570000E949C02DC01CB018F839887A987BA87C0
:103580006F81788589859A8520E030E040E85FE3A7
:103590000E94F60388232CF481E090E09E838D83C3
:1035A0003FC06F81788589859A8520E03FEF4FE79E
:1035B00057E40E94960318164CF56B857C858D8523
:1035C0009E8520E030E040E251E40E949C02DC0154
:1035D000CB01BC01CD010E94C600DC01CB019E8362
:1035E0008D830FC088EC90E09C838B838B819C81C2
:1035F0000197F1F79C838B838D819E8101979E8338
:103600008D838D819E81009769F73ACF6F81788590
:1036100089859A850E94C600DC01CB019E838D833B
:103620008D819E819A83898389819A810197F1F79F
:103630009A83898325CF65960FB6F894DEBF0FBEB7
:10364000CDBFCF91DF910895DF93CF93CDB7DEB794
:1036500061970FB6F894DEBF0FBECDBF8F878F8501
:10366000282F30E0398B288B888999898130910502
:1036700061F0288939892230310509F096C00E940D
:10368000FB1983E08093060190C00E948B1028EE06
:1036900030E080E061E0A9010E94231080E090E02A
:1036A000A6E1B4E48B879C87AD87BE876B857C855C
:1036B0008D859E8520E030E04AEF54E40E949C0214
:1036C000DC01CB018F839887A987BA876F817885C2
:1036D00089859A8520E030E040E85FE30E94F603A8
:1036E00088232CF481E090E09E838D833FC06F811E
:1036F000788589859A8520E03FEF4FE757E40E945F
:10370000960318164CF56B857C858D859E8520E08B
:1037100030E040E251E40E949C02DC01CB01BC019C
:10372000CD010E94C600DC01CB019E838D830FC0BA
:1037300088EC90E09C838B838B819C810197F1F7CF
:103740009C838B838D819E8101979E838D838D8148
:103750009E81009769F714C06F81788589859A8565
:103760000E94C600DC01CB019E838D838D819E81EA
:103770009A83898389819A810197F1F79A83898352
:103780008091060181508093060180910601882373
:1037900061F40E948B1027EF30E080E065E0A90122
:1037A0000E9423108CE30E94B61961960FB6F8941C
:1037B000DEBF0FBECDBFCF91DF910895DF93CF93D2
:1037C000CDB7DEB761970FB6F894DEBF0FBECDBFA1
:1037D0008F878F85282F30E0398B288B88899989AE
:1037E0008130910551F0288939892230310509F05D
:1037F00094C083E08093060190C00E948B1028EE55
:1038000030E080E061E0A9010E94231080E090E0B8
:10381000A6E1B4E48B879C87AD87BE876B857C85EA
:103820008D859E8520E030E04AEF54E40E949C02A2
:10383000DC01CB018F839887A987BA876F81788550
:1038400089859A8520E030E040E85FE30E94F60336
:1038500088232CF481E090E09E838D833FC06F81AC
:10386000788589859A8520E03FEF4FE757E40E94ED
:10387000960318164CF56B857C858D859E8520E01A
:1038800030E040E251E40E949C02DC01CB01BC012B
:10389000CD010E94C600DC01CB019E838D830FC049
:1038A00088EC90E09C838B838B819C810197F1F75E
:1038B0009C838B838D819E8101979E838D838D81D7
:1038C0009E81009769F714C06F81788589859A85F4
:1038D0000E94C600DC01CB019E838D838D819E8179
:1038E0009A83898389819A810197F1F79A838983E1
:1038F0008091060181508093060180910601882302
:1039000061F40E948B1027EF30E080E065E0A901B0
:103910000E9423108CE30E94B61961960FB6F894AA
:10392000DEBF0FBECDBFCF91DF910895A1E21A2E69
:10393000AA1BBB1BFD010DC0AA1FBB1FEE1FFF1F53
:10394000A217B307E407F50720F0A21BB30BE40BA3
:10395000F50B661F771F881F991F1A9469F76095EA
:103960007095809590959B01AC01BD01CF010895A4
:103970002F923F924F925F926F927F928F929F927F
:10398000AF92BF92CF92DF92EF92FF920F931F936D
:10399000CF93DF93CDB7DEB7CA1BDB0B0FB6F8941E
:1039A000DEBF0FBECDBF09942A88398848885F845E
:1039B0006E847D848C849B84AA84B984C884DF80CF
:1039C000EE80FD800C811B81AA81B981CE0FD11DB3
:1039D0000FB6F894DEBF0FBECDBFED010895EF9294
:1039E000FF920F931F93F22FF02E47FD02C0E4E0E9
:1039F00001C0E4E1242F332727FD309537FF03C0B2
:103A0000309521953F4F4F2D512F0F2FEE2E0E94B5
:103A1000311D8F2D912F1F910F91FF90EF900895E1
:103A2000FB019F01E8944230C4F04532B4F44A30BF
:103A300029F497FB1EF4909581959F4F642F77276B
:103A40000E947B1F805D8A330CF0895D8193CB01DE
:103A50000097A1F716F45DE251931082C9010C940E
:103A60006B1FA9E0B0E0E7E3FDE10C94BC1C6A0128
:103A7000122FA02EBE2C2BE3201718F42CE3922E2D
:103A800002C0902E9394AE014F5F5F4F27E0092D47
:103A90000E94931EBC018981E82EFF24C701897012
:103AA0009070019711F4ADE209C0B1FE02C0ABE223
:103AB00005C0B0FC02C0A0E001C0A0E2E3FE3BC034
:103AC000AA2311F423E001C024E0211710F020E024
:103AD00002C0121B212FEB2CB4FE02C0322F0AC0F1
:103AE000F601322F80E202C0819331503323E1F797
:103AF000C20ED11CAA2319F0F601A1936F01F601A1
:103B00003196E2FE05C09EE4D6019C9381E404C098
:103B10009EE6D6019C9381E611968C939183329612
:103B2000DF01832F90E202C09D9381508823E1F74B
:103B3000E30FF11D40C0E2FE42C0AA2311F423E0CE
:103B400001C024E0211710F020E002C0121B212F39
:103B5000EB2CB4FE02C0922F0AC0F601922F80E235
:103B600002C0819391509923E1F7C20ED11CAA2380
:103B700019F0F601A1936F01F6013196E2FE08C03B
:103B800089E4D6018C938EE411968C9386E407C069
:103B900089E6D6018C938EE611968C9386E6818316
:103BA0003296DF01892F20E202C02D9381508823B5
:103BB000E1F7E90FF11D10822EEF3FEFAFC01616AF
:103BC00017061CF041E050E003C0AB014F5F5F4FB0
:103BD000AA2019F480E090E003C08A2D90E00196BD
:103BE00020E030E0AA2311F021E030E0240F351F5F
:103BF000280F391F812F90E02817390714F020E093
:103C000002C0121B212F4B2D50E0CA018071907011
:103C1000B4FC0DC0B3FC0BC0F601322F40E202C071
:103C2000419331503323E1F7C20ED11C01C0322F32
:103C3000AA2319F0F601A1936F01892B11F0132F1C
:103C40000AC0F601132F80E302C0819311501123A3
:103C5000E1F7C30ED11C092D060FBA8090E1892E21
:103C6000912C8E209F20E4FE04C0F1E3BF1609F4DE
:103C70000150101614F001E003C0093008F008E00C
:103C80009B0177FF02C020E030E0CB010196821B50
:103C9000930BFE013196E80FF91F8EE2F82E3B01DF
:103CA000601A71088A2D90E044275527481B590B4C
:103CB0008FEF2F3F380719F4D601FD926D0162177F
:103CC00073072CF06216730614F4808101C080E340
:103CD0002150304031962417350724F0D6018D93BA
:103CE0006D01E6CF2617370749F4B5E3BB1528F079
:103CF000BB1621F48114910409F481E3F601819348
:103D0000D601812F90E202C09C93815011968823A6
:103D1000D9F7E10FF11D108220E030E0C9012996AA
:103D2000EEE00C94D81C283008F027E03327DA01A5
:103D3000990F311D87FD916000966105710539F479
:103D400032602E5F3D9330E32A95E1F708959F3F5F
:103D500030F080387105610509F03C5F3C5F3D93B0
:103D6000913008F08068911DDF93CF931F930F93DC
:103D7000FF92EF92192F987F9695E92F9695969539
:103D8000E90FFF27E255FF4F99273327EE24FF2441
:103D9000A701E70105900894079428F4360FE71E61
:103DA000F81E491F511D660F771F881F991F069423
:103DB000A1F70590079428F4E70EF81E491F561F37
:103DC000C11D770F881F991F661F0694A1F70590E4
:103DD000079428F4F80E491F561FC71FD11D880FDE
:103DE000991F661F771F0694A1F70590079420F48A
:103DF000490F561FC71FD81F990F661F771F881FAF
:103E00000694A9F784911095177041F0D695C7953F
:103E100057954795F794E7941A95C1F7E4E5F0E0D4
:103E200068941590159135916591959105907FE273
:103E30007395E118F10A430B560BC90BD009C0F773
:103E4000E10CF11E431F561FC91FD01D7EF47033B5
:103E500011F48A95E6CFE894015030F0080F0AF487
:103E60000027021708F4202F2395022F7A3328F019
:103E700079E37D932A95E9F710C07D932A9589F619
:103E8000069497956795379517951794E118F10A59
:103E9000430B560BC90BD00998F023957E9173956F
:103EA0007A3308F070E37C932013B8F77E91706149
:103EB0007D9330F0839571E37D9370E32A95E1F76C
:103EC0001124EF90FF900F911F91CF91DF919927CF
:103ED00087FD90950895DC01FC01672F7191772390
:103EE000E1F7329704C07C916D9370836291AE17B5
:103EF000BF07C8F30895AA1BBB1B51E107C0AA1F47
:103F0000BB1FA617B70710F0A61BB70B881F991F7A
:103F10005A95A9F780959095BC01CD010895F89424
:023F2000FFCFD1
:103F220050617373204D6174636865642100506150
:103F32007373204E6F74204D617463686564210051
:103F4200456E74657220506173733A0052652D6537
:103F52006E74657220506173733A005472616E73AD
:103F62006D697474696E6700446F6F7220697300C3
:103F7200556E6C6F636B696E670057414954494EC9
:103F820047004C6F636B696E67002B203A204F70BD
:103F9200656E20446F6F72002D203A204368616E77
:103FA200676520706173730057726F6E672050618E
:103FB2007373776F7264004552524F5221000000B2
:103FC200000000000000030302008025000004013D
:023FD200127A61
:00000001FF
